{
  "abi": [
    {
      "type": "constructor",
      "inputs": [],
      "stateMutability": "nonpayable"
    },
    {
      "type": "function",
      "name": "getCommiteeCount",
      "inputs": [],
      "outputs": [
        {
          "name": "",
          "type": "uint256",
          "internalType": "uint256"
        }
      ],
      "stateMutability": "view"
    },
    {
      "type": "function",
      "name": "getGenerator",
      "inputs": [],
      "outputs": [
        {
          "name": "",
          "type": "bytes",
          "internalType": "bytes"
        }
      ],
      "stateMutability": "view"
    },
    {
      "type": "function",
      "name": "getParam",
      "inputs": [],
      "outputs": [
        {
          "name": "",
          "type": "bytes",
          "internalType": "bytes"
        },
        {
          "name": "",
          "type": "bytes",
          "internalType": "bytes"
        },
        {
          "name": "",
          "type": "bytes[]",
          "internalType": "bytes[]"
        }
      ],
      "stateMutability": "view"
    },
    {
      "type": "function",
      "name": "getPrime",
      "inputs": [],
      "outputs": [
        {
          "name": "",
          "type": "bytes",
          "internalType": "bytes"
        },
        {
          "name": "",
          "type": "bytes",
          "internalType": "bytes"
        }
      ],
      "stateMutability": "view"
    },
    {
      "type": "function",
      "name": "getWinnerInfo",
      "inputs": [],
      "outputs": [
        {
          "name": "",
          "type": "uint256",
          "internalType": "uint256"
        },
        {
          "name": "",
          "type": "uint256",
          "internalType": "uint256"
        }
      ],
      "stateMutability": "view"
    },
    {
      "type": "function",
      "name": "getlhs",
      "inputs": [],
      "outputs": [
        {
          "name": "",
          "type": "uint256",
          "internalType": "uint256"
        }
      ],
      "stateMutability": "view"
    },
    {
      "type": "function",
      "name": "openCommitment",
      "inputs": [
        {
          "name": "pid",
          "type": "uint256",
          "internalType": "uint256"
        },
        {
          "name": "value",
          "type": "uint256",
          "internalType": "uint256"
        },
        {
          "name": "r",
          "type": "uint256",
          "internalType": "uint256"
        }
      ],
      "outputs": [],
      "stateMutability": "nonpayable"
    },
    {
      "type": "function",
      "name": "s_commiteeCount",
      "inputs": [],
      "outputs": [
        {
          "name": "",
          "type": "uint256",
          "internalType": "uint256"
        }
      ],
      "stateMutability": "view"
    },
    {
      "type": "function",
      "name": "s_g",
      "inputs": [],
      "outputs": [
        {
          "name": "",
          "type": "bytes",
          "internalType": "bytes"
        }
      ],
      "stateMutability": "view"
    },
    {
      "type": "function",
      "name": "s_h",
      "inputs": [],
      "outputs": [
        {
          "name": "",
          "type": "bytes",
          "internalType": "bytes"
        }
      ],
      "stateMutability": "view"
    },
    {
      "type": "function",
      "name": "s_lhs",
      "inputs": [],
      "outputs": [
        {
          "name": "",
          "type": "uint256",
          "internalType": "uint256"
        }
      ],
      "stateMutability": "view"
    },
    {
      "type": "function",
      "name": "s_p",
      "inputs": [],
      "outputs": [
        {
          "name": "",
          "type": "bytes",
          "internalType": "bytes"
        }
      ],
      "stateMutability": "view"
    },
    {
      "type": "function",
      "name": "s_pkcList",
      "inputs": [
        {
          "name": "",
          "type": "uint256",
          "internalType": "uint256"
        }
      ],
      "outputs": [
        {
          "name": "",
          "type": "bytes",
          "internalType": "bytes"
        }
      ],
      "stateMutability": "view"
    },
    {
      "type": "function",
      "name": "s_q",
      "inputs": [],
      "outputs": [
        {
          "name": "",
          "type": "bytes",
          "internalType": "bytes"
        }
      ],
      "stateMutability": "view"
    },
    {
      "type": "function",
      "name": "s_transactionList",
      "inputs": [
        {
          "name": "",
          "type": "uint256",
          "internalType": "uint256"
        }
      ],
      "outputs": [
        {
          "name": "id",
          "type": "uint256",
          "internalType": "uint256"
        },
        {
          "name": "value",
          "type": "uint256",
          "internalType": "uint256"
        }
      ],
      "stateMutability": "view"
    },
    {
      "type": "function",
      "name": "s_winerbid",
      "inputs": [],
      "outputs": [
        {
          "name": "",
          "type": "uint256",
          "internalType": "uint256"
        }
      ],
      "stateMutability": "view"
    },
    {
      "type": "function",
      "name": "s_winerid",
      "inputs": [],
      "outputs": [
        {
          "name": "",
          "type": "uint256",
          "internalType": "uint256"
        }
      ],
      "stateMutability": "view"
    },
    {
      "type": "function",
      "name": "setGenerator",
      "inputs": [
        {
          "name": "g",
          "type": "bytes",
          "internalType": "bytes"
        },
        {
          "name": "h",
          "type": "bytes",
          "internalType": "bytes"
        }
      ],
      "outputs": [],
      "stateMutability": "nonpayable"
    },
    {
      "type": "function",
      "name": "setPrime",
      "inputs": [
        {
          "name": "p",
          "type": "bytes",
          "internalType": "bytes"
        },
        {
          "name": "q",
          "type": "bytes",
          "internalType": "bytes"
        }
      ],
      "outputs": [],
      "stateMutability": "nonpayable"
    },
    {
      "type": "function",
      "name": "setpkcList",
      "inputs": [
        {
          "name": "index",
          "type": "uint256",
          "internalType": "uint256"
        },
        {
          "name": "pk",
          "type": "bytes",
          "internalType": "bytes"
        }
      ],
      "outputs": [],
      "stateMutability": "nonpayable"
    },
    {
      "type": "function",
      "name": "setup",
      "inputs": [
        {
          "name": "pid",
          "type": "uint256",
          "internalType": "uint256"
        },
        {
          "name": "id",
          "type": "uint256",
          "internalType": "uint256"
        },
        {
          "name": "value",
          "type": "uint256",
          "internalType": "uint256"
        }
      ],
      "outputs": [],
      "stateMutability": "nonpayable"
    }
  ],
  "bytecode": {
    "object": "0x608060405234801561001057600080fd5b50610ffc806100206000396000f3fe608060405234801561001057600080fd5b50600436106101375760003560e01c80635a9ef4b1116100b8578063989c79cb1161007c578063989c79cb1461023c578063b54e40561461024f578063c75abf2414610258578063c90ce46414610291578063f62afbf3146102a7578063fafaee00146102ba57600080fd5b80635a9ef4b1146101fd578063758751d3146102065780637c4eb5a81461020e5780638390171e146102215780638edf53cf1461022957600080fd5b8063334baba4116100ff578063334baba4146101c6578063363d6346146101db5780633ffd1518146101e3578063413fef06146101eb5780634966f86e146101f457600080fd5b80630793efe11461013c5780631e2ca2601461017d57806322bb26f71461019257806323f884f01461019d5780632a2465fc146101af575b600080fd5b61016361014a366004610a4d565b6001602081905260009182526040909120805491015482565b604080519283526020830191909152015b60405180910390f35b6101856102c2565b6040516101749190610aac565b600854600754610163565b6006545b604051908152602001610174565b6101b7610354565b60405161017493929190610abf565b6101d96101d4366004610b46565b6105ba565b005b6101856106ea565b610185610778565b6101a160085481565b6101a160065481565b6101a160075481565b610185610785565b6101d961021c366004610c15565b610792565b6101856107e7565b6101d9610237366004610c5c565b6107f4565b61018561024a366004610a4d565b61080d565b6101a160095481565b6101d9610266366004610b46565b6040805180820182529283526020808401928352600094855260019081905293209151825551910155565b610299610826565b604051610174929190610cb6565b6101d96102b5366004610c5c565b61094d565b6009546101a1565b6060600280546102d190610ce4565b80601f01602080910402602001604051908101604052809291908181526020018280546102fd90610ce4565b801561034a5780601f1061031f5761010080835404028352916020019161034a565b820191906000526020600020905b81548152906001019060200180831161032d57829003601f168201915b5050505050905090565b60608060606000600654600161036a9190610d34565b905060008167ffffffffffffffff81111561038757610387610b72565b6040519080825280602002602001820160405280156103ba57816020015b60608152602001906001900390816103a55790505b50905060005b8281101561048f57600081815260208190526040902080546103e190610ce4565b80601f016020809104026020016040519081016040528092919081815260200182805461040d90610ce4565b801561045a5780601f1061042f5761010080835404028352916020019161045a565b820191906000526020600020905b81548152906001019060200180831161043d57829003601f168201915b505050505082828151811061047157610471610d4d565b6020026020010181905250808061048790610d63565b9150506103c0565b5060026003828280546104a190610ce4565b80601f01602080910402602001604051908101604052809291908181526020018280546104cd90610ce4565b801561051a5780601f106104ef5761010080835404028352916020019161051a565b820191906000526020600020905b8154815290600101906020018083116104fd57829003601f168201915b5050505050925081805461052d90610ce4565b80601f016020809104026020016040519081016040528092919081815260200182805461055990610ce4565b80156105a65780601f1061057b576101008083540402835291602001916105a6565b820191906000526020600020905b81548152906001019060200180831161058957829003601f168201915b505050505091509450945094505050909192565b600061064f600280546105cc90610ce4565b80601f01602080910402602001604051908101604052809291908181526020018280546105f890610ce4565b80156106455780601f1061061a57610100808354040283529160200191610645565b820191906000526020600020905b81548152906001019060200180831161062857829003601f168201915b5050505050610966565b90506000610663600580546105cc90610ce4565b90506000610677600380546105cc90610ce4565b90506000826106878387866109eb565b6106928689876109eb565b61069c9190610d7c565b6106a69190610d93565b6000888152600160208190526040822001549192506106c58583610d93565b600984905590508281146106d857600080fd5b50505060089590955550505060075550565b600480546106f790610ce4565b80601f016020809104026020016040519081016040528092919081815260200182805461072390610ce4565b80156107705780601f1061074557610100808354040283529160200191610770565b820191906000526020600020905b81548152906001019060200180831161075357829003601f168201915b505050505081565b600380546106f790610ce4565b600580546106f790610ce4565b600082815260208190526040902080546107ab90610ce4565b90506000036107ca57600680549060006107c483610d63565b91905055505b60008281526020819052604090206107e28282610e03565b505050565b600280546106f790610ce4565b60056108008382610e03565b5060046107e28282610e03565b600060208190529081526040902080546106f790610ce4565b6060806005600481805461083990610ce4565b80601f016020809104026020016040519081016040528092919081815260200182805461086590610ce4565b80156108b25780601f10610887576101008083540402835291602001916108b2565b820191906000526020600020905b81548152906001019060200180831161089557829003601f168201915b505050505091508080546108c590610ce4565b80601f01602080910402602001604051908101604052809291908181526020018280546108f190610ce4565b801561093e5780601f106109135761010080835404028352916020019161093e565b820191906000526020600020905b81548152906001019060200180831161092157829003601f168201915b50505050509050915091509091565b60026109598382610e03565b5060036107e28282610e03565b60008060005b83518110156109e457610980816001610d34565b845161098c9190610ec3565b610997906008610d7c565b6109a2906002610fba565b8482815181106109b4576109b4610d4d565b01602001516109c6919060f81c610d7c565b6109d09083610d34565b9150806109dc81610d63565b91505061096c565b5092915050565b60016109f78285610d93565b93505b8215610a465782600116600103610a235781610a168286610d7c565b610a209190610d93565b90505b81610a2e8580610d7c565b610a389190610d93565b9350600183901c92506109fa565b9392505050565b600060208284031215610a5f57600080fd5b5035919050565b6000815180845260005b81811015610a8c57602081850181015186830182015201610a70565b506000602082860101526020601f19601f83011685010191505092915050565b602081526000610a466020830184610a66565b606081526000610ad26060830186610a66565b602083820381850152610ae58287610a66565b915083820360408501528185518084528284019150828160051b85010183880160005b83811015610b3657601f19878403018552610b24838351610a66565b94860194925090850190600101610b08565b50909a9950505050505050505050565b600080600060608486031215610b5b57600080fd5b505081359360208301359350604090920135919050565b634e487b7160e01b600052604160045260246000fd5b600082601f830112610b9957600080fd5b813567ffffffffffffffff80821115610bb457610bb4610b72565b604051601f8301601f19908116603f01168101908282118183101715610bdc57610bdc610b72565b81604052838152866020858801011115610bf557600080fd5b836020870160208301376000602085830101528094505050505092915050565b60008060408385031215610c2857600080fd5b82359150602083013567ffffffffffffffff811115610c4657600080fd5b610c5285828601610b88565b9150509250929050565b60008060408385031215610c6f57600080fd5b823567ffffffffffffffff80821115610c8757600080fd5b610c9386838701610b88565b93506020850135915080821115610ca957600080fd5b50610c5285828601610b88565b604081526000610cc96040830185610a66565b8281036020840152610cdb8185610a66565b95945050505050565b600181811c90821680610cf857607f821691505b602082108103610d1857634e487b7160e01b600052602260045260246000fd5b50919050565b634e487b7160e01b600052601160045260246000fd5b80820180821115610d4757610d47610d1e565b92915050565b634e487b7160e01b600052603260045260246000fd5b600060018201610d7557610d75610d1e565b5060010190565b8082028115828204841417610d4757610d47610d1e565b600082610db057634e487b7160e01b600052601260045260246000fd5b500690565b601f8211156107e257600081815260208120601f850160051c81016020861015610ddc5750805b601f850160051c820191505b81811015610dfb57828155600101610de8565b505050505050565b815167ffffffffffffffff811115610e1d57610e1d610b72565b610e3181610e2b8454610ce4565b84610db5565b602080601f831160018114610e665760008415610e4e5750858301515b600019600386901b1c1916600185901b178555610dfb565b600085815260208120601f198616915b82811015610e9557888601518255948401946001909101908401610e76565b5085821015610eb35787850151600019600388901b60f8161c191681555b5050505050600190811b01905550565b81810381811115610d4757610d47610d1e565b600181815b80851115610f11578160001904821115610ef757610ef7610d1e565b80851615610f0457918102915b93841c9390800290610edb565b509250929050565b600082610f2857506001610d47565b81610f3557506000610d47565b8160018114610f4b5760028114610f5557610f71565b6001915050610d47565b60ff841115610f6657610f66610d1e565b50506001821b610d47565b5060208310610133831016604e8410600b8410161715610f94575081810a610d47565b610f9e8383610ed6565b8060001904821115610fb257610fb2610d1e565b029392505050565b6000610a468383610f1956fea2646970667358221220d615d6fed8a8cbf29b28ef5a19a5acbf92f4aae5c38101433b53224fce4432e664736f6c63430008130033",
    "linkReferences": {}
  },
  "methodIdentifiers": {
    "getCommiteeCount()": "23f884f0",
    "getGenerator()": "1e2ca260",
    "getParam()": "2a2465fc",
    "getPrime()": "c90ce464",
    "getWinnerInfo()": "22bb26f7",
    "getlhs()": "fafaee00",
    "openCommitment(uint256,uint256,uint256)": "334baba4",
    "s_commiteeCount()": "4966f86e",
    "s_g()": "8390171e",
    "s_h()": "3ffd1518",
    "s_lhs()": "b54e4056",
    "s_p()": "758751d3",
    "s_pkcList(uint256)": "989c79cb",
    "s_q()": "363d6346",
    "s_transactionList(uint256)": "0793efe1",
    "s_winerbid()": "5a9ef4b1",
    "s_winerid()": "413fef06",
    "setGenerator(bytes,bytes)": "f62afbf3",
    "setPrime(bytes,bytes)": "8edf53cf",
    "setpkcList(uint256,bytes)": "7c4eb5a8",
    "setup(uint256,uint256,uint256)": "c75abf24"
  },
  "id": 23
}